:100000000C94D4000C94FC000C94FC000C94FC00A8
:100010000C94FC000C94FC000C94FC000C94FC0070
:100020000C94FC000C94FC000C9475040C94E404F7
:100030000C94FC000C94FC000C94FC000C94FC0050
:100040000C94FC000C94FC000C94FC000C94FC0040
:100050000C94FC000C94FC000C94FC000C9416070F
:100060000C94FC000C94FC000C94FC000C94FC0020
:100070000C94FC000C94FC000C94FC000C94FC0010
:100080000C94FC000C94FC000C94FC000C94FC0000
:100090000C94FC000C94FC000C94FC000C94FC00F0
:1000A0000C94FC000C94FC000C94FC00000000007C
:1000B000240027002A002D00300000000000250049
:1000C00028002B002E003100000000002300260035
:1000D00029002C002F000404040404030405020278
:1000E00002020403020202020606060606060404D1
:1000F0000202020404040802011040804010204063
:10010000804080080204018040201002011080100D
:10011000204040200000000200090F0000030401FD
:10012000000C0000000000000000000000000000C3
:10013000000000080B000202020000090400000198
:10014000020200000524001001052401010104241D
:10015000020605240600010705810310004009047A
:100160000100020A00000007050202400000070526
:1001700083024000000403090412010002EF02019F
:100180004041233780000101020301417264756917
:100190006E6F204C4C430041726475696E6F204D48
:1001A0006963726F0000600711241FBECFEFDAE0B1
:1001B000DEBFCDBF11E0A0E0B1E0ECE3F1E102C0B1
:1001C00005900D92A433B107D9F721E0A4E3B1E083
:1001D00001C01D92A53AB207E1F710E0C4EDD0E0EE
:1001E00004C02197FE010E948208C33DD107C9F7D0
:1001F0000E9475070C949C080C940000FC018091EF
:10020000A401882311F13FB7F89482E08093E900BC
:100210002091F200822F90E01816190614F481E064
:1002200090E0882339F0289A44E64093A301409156
:10023000F1004083222339F02091F200211103C004
:100240002BE62093E8003FBF08958FEF9FEF0895BE
:100250002FB7F89483E08093E9009091E800892F0C
:10026000807295FF04C09091F20080E4891B2FBF3B
:10027000089580919B0181110DC082E080939701C8
:1002800084E08093980110929A011092990181E084
:1002900080939B0187E991E00895CF93DF931F92AC
:1002A000CDB7DEB76983DC01ED91FC910280F3816B
:1002B000E02D41E050E0BE016F5F7F4F09950F9048
:1002C000DF91CF91089583E08093E9008091F2005F
:1002D000882319F08AE38093E80008950E9428019A
:1002E00090E00895CF93DF931F92CDB7DEB7FC0166
:1002F0008485958597FD08C02FEF3FEF35872487CC
:100300000F90DF91CF910895CE0101960E94FE00DB
:10031000019719F4898190E0F3CF8FEF9FEFF0CF31
:100320000F931F93CF93DF931F92CDB7DEB78C014E
:10033000FC018485958597FF0BC0CE0101960E9434
:10034000FE00019771F4898190E0F8019587848718
:10035000F801848595850F90DF91CF911F910F91C2
:1003600008958FEF9FEFF1CFFC018485958597FD70
:100370000BC09FB7F89482E08093E9008091F2006F
:100380009FBF90E0019608959FB7F89482E0809314
:10039000E9008091F2009FBF90E0089540914101F3
:1003A0005091420120913F01309140014217530783
:1003B000B4F49091E8009570E1F39091E80092FD1B
:1003C00019C08093F1008091410190914201019602
:1003D0008F739927892B19F48EEF8093E800809111
:1003E0004101909142010196909342018093410115
:1003F00081E0089580E00895EF92FF920F931F939C
:10040000CF93DF93F82E192FE62E042F81E0860F6D
:10041000880F0E94CE0183E00E94CE01CF2DD12F04
:10042000EC0EFD2EF11CCE15DF05B9F007FF13C051
:10043000FE0184910E94CE01182F80E00E94CE011F
:10044000812321968111EFCFDF91CF911F910F91E1
:10045000FF90EF9008958881EDCF81E0F5CFDF9296
:10046000EF92FF920F931F93CF93DF93D82E8A01C1
:10047000EB017B01E40EF51ECE15DF0559F0D7FE2A
:1004800012C0FE0184910E94CE0121968111F4CF09
:100490000FEF1FEFC801DF91CF911F910F91FF90D8
:1004A000EF90DF9008958881EECF0F931F93CF9345
:1004B000DF931F92CDB7DEB782E0898342E450E03C
:1004C00063E371E080E80E942F020E943901DC01A1
:1004D00012960D911C910115110589F0D801ED912D
:1004E000FC910280F381E02DBE016F5F7F4FC80158
:1004F000099597FD04C0F80100851185ECCF89812D
:100500000F90DF91CF911F910F910895615030F0BE
:100510002091F100FC0120830196F8CF289A84E60F
:100520008093A301089581508F3008F047C0E82FD1
:10053000F0E0E356FD4F0C948208BA02BE02AC0212
:10054000B202B602DE02DE02DE02C102C702CB0246
:10055000CF02D502DE02D902809180008F7780938E
:1005600080000895809180008F7DF9CF8091800078
:10057000877FF5CF84B58F7784BD089584B58F7D4F
:10058000FBCF809190008F778093900008958091A9
:1005900090008F7DF9CF80919000877FF5CF80917B
:1005A000C0008F778093C00008958091C0008F7D38
:1005B000F9CF8091C200877F8093C2000895CF93C6
:1005C000DF93282F30E0F901EC5EFE4F8491F901B2
:1005D000EB50FF4FD491F901EA52FF4FC491CC2365
:1005E000A1F081110E949302EC2FF0E0EE0FFF1FAB
:1005F000E853FF4FA591B491EC91ED2381E090E099
:1006000009F480E0DF91CF91089580E090E0FACF87
:100610001F93CF93DF93282F30E0F901EC5EFE4F5C
:100620008491F901EB50FF4FD491F901EA52FF4F49
:10063000C491CC23A9F0162F81110E949302EC2FB4
:10064000F0E0EE0FFF1FE654FF4FA591B4918FB776
:10065000F894EC91111108C0D095DE23DC938FBF84
:10066000DF91CF911F910895DE2BF8CFCF93DF93C9
:1006700090E0FC01EB50FF4F24918A529F4FFC0108
:1006800084918823D1F090E0880F991FFC01E455F4
:10069000FF4FA591B491FC01E654FF4FC591D49151
:1006A00061110EC09FB7F8948C91E22FE0958E23D4
:1006B0008C932881E223E8839FBFDF91CF91089537
:1006C0008FB7F894EC91E22BEC938FBFF6CF3FB746
:1006D000F8948091390190913A01A0913B01B09139
:1006E0003C0126B5A89B05C02F3F19F00196A11D1E
:1006F000B11D3FBFBA2FA92F982F8827BC01CD016C
:10070000620F711D811D911D42E0660F771F881FCA
:10071000991F4A95D1F708958F929F92AF92BF92F9
:10072000CF92DF92EF92FF926B017C010E946703F0
:100730004B015C01C114D104E104F104B9F00E9441
:100740006703681979098A099B09683E7340810526
:10075000910580F321E0C21AD108E108F10888EE82
:10076000880E83E0981EA11CB11CE4CFFF90EF908F
:10077000DF90CF90BF90AF909F908F9008958F9211
:100780009F92AF92BF92CF92DF92EF92FF920F9320
:100790001F93CF93DF936C017B018A0180910B0142
:1007A000882309F45CC08091A401882309F457C010
:1007B0008091460180FF05C08091E00082608093B7
:1007C000E000E801B12C8AEFA82E93E0892E2AE3FD
:1007D000922E209711F4BB20D9F10E94280181119B
:1007E0000AC0AA94AA20D9F161E070E080E090E00C
:1007F0000E948C03EECF8C171D0611F00CF08C2F8D
:100800009FB7F8948092E9002091E80025FD02C08E
:100810009FBFDFCF282F30E0C21BD30BF7018150E1
:1008200020F041914093F100FACFE20EF31EBB207D
:1008300021F09092E800B12CEBCF8091E80085FD8B
:10084000E7CF9092E800BB24B394209709F3F3CF4D
:100850005D9A84E680934501101611063CF081E014
:1008600090E0F6019383828310E000E0C801DF91FD
:10087000CF911F910F91FF90EF90DF90CF90BF909D
:10088000AF909F908F900895CF93DF9367E070E0D3
:100890000E946E08EC0190933E0180933D01BC01E3
:1008A0006170772786E00E940803BE017695679500
:1008B000617086E00E940803D695C795D695C795C6
:1008C0006C2F617086E0DF91CF910C94080361E09A
:1008D00085E00E94080360ED77E080E090E00E94F0
:1008E0008C0360E085E00C9408031F920F920FB612
:1008F0000F9211248F939F938091E1009091E100DA
:10090000937F9093E10083FF0FC01092E90091E084
:100910009093EB001092EC0092E39093ED00109214
:10092000A40198E09093F00082FF22C093E090939E
:10093000E9009091F200992319F09AE39093E8006E
:1009400090914501992341F09091450191509093E8
:100950004501911101C05D989091A301992341F047
:100960009091A30191509093A301911101C02898F7
:1009700084FF18C08091E2008E7E81608093E20047
:100980008091E1008F7E8093E100809146018E7E10
:100990008061809346019F918F910F900FBE0F90C1
:1009A0001F90189580FFF7CF8091E2008E7E8061C6
:1009B0008093E2008091E1008E7E8093E10080913F
:1009C00046018E7E8160E5CF1F920F920FB60F9287
:1009D0001124CF92DF92EF92FF920F931F932F93E8
:1009E0003F934F935F936F937F938F939F93AF93B7
:1009F000BF93EF93FF93CF93DF93CDB7DEB76C97A1
:100A0000DEBFCDBF1092E9008091E80083FF25C0D2
:100A100068E0CE0145960E94860282EF8093E8004E
:100A20008D8987FF39C09091E80090FFFCCF982F07
:100A3000907609F034C19E894F89588D2F89F88CA2
:100A4000911131C0803861F5809144018093F100AB
:100A50001092F1008EEF8093E8006C960FB6F89438
:100A6000DEBF0FBECDBFDF91CF91FF91EF91BF9160
:100A7000AF919F918F917F916F915F914F913F9136
:100A80002F911F910F91FF90EF90DF90CF900F90DB
:100A90000FBE0F901F9018959EEF9093E800C7CF60
:100AA0001092F100D5CF913059F48111D3CF41305C
:100AB000510581F6809144018D7F80934401CACF16
:100AC000933049F48111C6CF4130510519F6809118
:100AD00044018260F2CF953041F48091E80080FFBC
:100AE000FCCF20682093E300B5CF963009F0A9C071
:100AF0000B8D1C8D22E01092E900109242011092A1
:100B00004101F2122EC01092400110923F010E944A
:100B100055021F8299E09983FA8291E09E8390EAC0
:100B200098879AEF99872091410130914201275F80
:100B30003F4F3C832B838D831092E900109242013A
:100B4000109241011093400100933F0149E050E0B1
:100B5000BE016F5F7F4F80E00E942F020E9455020E
:100B600079CF1093400100933F010E943901DC01CD
:100B700012960D911C910115110509F451C1D8016E
:100B8000ED91FC910480F581E02DBE016B5E7F4FFD
:100B9000C8010995009709F03EC1F801008511854B
:100BA000EACFF3E0FF120EC08F89882309F440C01A
:100BB000823061F440E86DE087E991E00E94FC0139
:100BC000811148CF81E28093EB0047CF813029F437
:100BD00040E86BE08BE891E0F1CF833099F70E9419
:100BE0003901DC011296ED90FC908E010F5F1F4FD2
:100BF0006801E114F10479F0D701ED91FC910680D0
:100C0000F781E02DB801C7010995080F111DF70103
:100C1000E084F184EECFD8011C92F601019000200F
:100C2000E9F73197BF016C197D0940E0C601C6CFD5
:100C300065E771E0FB01449150E080E80E942F02DB
:100C400009CF973009F4BECF983021F481E080932A
:100C5000F10000CF993009F0FDCE837009F0B2CFDA
:100C6000EBE1F1E081E031E096E32191222371F0A4
:100C70008093E9003093EB00DF0111972C912093D2
:100C8000EC009093ED008F5F873079F78EE78093CB
:100C9000EA001092EA008F898093A401DBCE8B8D4D
:100CA0009C8D1092E90010924201109241019093A4
:100CB000400180933F01898D811192C08E899D8969
:100CC000913A49F4813209F07DCF47E050E064E089
:100CD00071E080E0B3CF913209F074CF833269F4D0
:100CE0008F89988DB0E0A0E080930001909301017E
:100CF000A0930201B0930301ADCE803269F48091DC
:100D0000E80082FFFCCF67E084E091E00E94860269
:100D10008BEF8093E8009ECE823209F09BCE8F89C4
:100D200080930B01EEEFFFE7859194918B3F9C4DF3
:100D300051F1E0E0F8E08091040190910501A0916B
:100D40000601B0910701803B9440A105B105F1F483
:100D500080910B0180FD1AC0EE3F8AE0F80789F50B
:100D600087E797E7918380838091600080934301B8
:100D700088E19BE00FB6F894A895809360000FBEC1
:100D80009093600067CEEEEFFAE0D5CF808191813D
:100D90008737974709F05ECEA895809160008861FB
:100DA000809360008091430180936000EE3F2AE0D1
:100DB000F20789F08091FE0A9091FF0A9183808367
:100DC00049CE808191818737980751F29093FF0A2D
:100DD0008093FE0AC5CF1092FF0A1092FE0A3ACE07
:100DE0000E943901DC0112960D911C91011511052B
:100DF00009F4E8CED801ED91FC910190F081E02D4D
:100E0000BE016B5E7F4FC8010995811123CEF801A9
:100E100000851185EBCF181619060CF41BCED2CE27
:100E2000F1E0FF12BECE69E771E004CF1F920F928E
:100E30000FB60F9211242F933F938F939F93AF93ED
:100E4000BF938091350190913601A0913701B09107
:100E500038013091340123E0230F2D3758F50196E6
:100E6000A11DB11D2093340180933501909336016B
:100E7000A0933701B09338018091390190913A01E4
:100E8000A0913B01B0913C010196A11DB11D809341
:100E9000390190933A01A0933B01B0933C01BF917B
:100EA000AF919F918F913F912F910F900FBE0F9017
:100EB0001F90189526E8230F0296A11DB11DD2CFD1
:100EC000E7E4F1E01382128288EE93E0A0E0B0E064
:100ED00084839583A683B78385E291E091838083A1
:100EE0008FEF9FEF958784870895789484B582600B
:100EF00084BD84B5816084BD85B5826085BD85B5BE
:100F0000816085BD80916E00816080936E0010923B
:100F100081008091810082608093810080918100B6
:100F20008160809381008091800081608093800047
:100F30008091910082608093910080919100816006
:100F400080939100809190008160809390008091C7
:100F5000C10084608093C1008091C1008260809351
:100F6000C1008091C10081608093C1008091C30065
:100F700081608093C3008091C00082608093C00034
:100F80008091C20081608093C20080917A00846069
:100F900080937A0080917A00826080937A008091B9
:100FA0007A00816080937A0080917A0080688093D3
:100FB0007A001092A401109244011092460180918F
:100FC000D70081608093D70080EA8093D80089B5EC
:100FD000806189BD89B5826089BD09B400FEFDCFFD
:100FE00061E070E080E090E00E948C038091D80086
:100FF0008F7C80618093D8008091E000807F809317
:10100000E0008091E1008E7E8093E1008DE080938E
:10101000E200559A209A5D98289860E082E00E944C
:10102000360360E083E00E94360360E084E00E94C3
:10103000360361E085E00E94360361E086E00E94AD
:10104000360361E087E00E94360361E088E00E9499
:10105000360398EEE92E93E0F92E00E010E082E0EE
:101060000E94DF02019719F490E080E00AC083E05B
:101070000E94DF02019769F480913D0190913E0149
:1010800001960E9444040115110549F30E940000D5
:10109000E6CF84E00E94DF020197A9F7C0913D01ED
:1010A000D0913E01209779F30E946704CC0FDD1F99
:1010B000C45FDE4F888199818E9DB0018F9D700D38
:1010C0009E9D700D1124605A7F40072E000C880BE6
:1010D000990B0E948C030E946704C6CF97FB072ED2
:1010E00016F4009407D077FD09D00E94880807FC09
:1010F00005D03EF4909581959F4F08957095619528
:101100007F4F0895EE0FFF1F0590F491E02D099495
:10111000AA1BBB1B51E107C0AA1FBB1FA617B7071D
:1011200010F0A61BB70B881F991F5A95A9F7809539
:0C1130009095BC01CD010895F894FFCF0C
:10113C00FFFFFFFF00E100000000000000000800BE
:10114C000C00140023005A00A50000C1808100008F
:10115C0000000000004D01BF036E016301B4017279
:04116C0001900100ED
:00000001FF
